:020000040800F2
:10000000D80C002079020008DD3E0008F13D000810
:10001000D93E0008C51D0008654600080000000024
:10002000000000000000000000000000794200080D
:10003000F51D0008000000008F0200089102000872
:10004000930200089302000893020008930200083C
:10005000930200089302000893020008930200082C
:10006000930200089302000893020008930200081C
:10007000930200089302000893020008930200080C
:1000800093020008930200089302000893020008FC
:10009000930200089302000893020008F71D00086D
:1000A00093020008930200089302000893020008DC
:1000B00093020008930200089302000893020008CC
:1000C00093020008930200089302000893020008BC
:1000D0009302000839450008930200085D450008B6
:1000E000930200089302000893020008930200089C
:1000F000930200089302000893020008930200088C
:10010000930200089302000893020008930200087B
:10011000930200089302000893020008930200086B
:10012000930200089302000893020008930200085B
:1001300000F002F800F090F80AA090E8000C824469
:100140008344AAF10107DA4501D100F085F8AFF246
:10015000090EBAE80F0013F0010F18BFFB1A43F0A5
:10016000010318475CA800007CA80000103A24BFD7
:1001700078C878C1FAD8520724BF30C830C144BF0C
:1001800004680C607047000000230024002500264E
:10019000103A28BF78C1FBD8520728BF30C148BFEA
:1001A0000B6070476E2900F00283702900F0858192
:1001B000662907F06B82652907F06882672907F0D6
:1001C0006582612907F0648203681B0A28BF41F039
:1001D0008001692900F0F680642900F0F380752918
:1001E00000F0F0806F2900F00886782900F0518136
:1001F000E92900F0A385E42900F0A085F52900F0A5
:100200009D85EF2900F00586F82900F050810368EC
:10021000DB0928BF41F08001632900F012857329B2
:1002200000F01785E32901F01580F32901F01A8009
:10023000002070471FB500F0F7FD040000200021EA
:1002400006F092FA401C60600020002106F076FA69
:10025000E0601FBD10B510BD01F0A2F81146FFF718
:10026000E9FF05F0BBFA01F0C9F803B4FFF7F2FFAC
:1002700003BC04F0A6FA000009488047094800477B
:10028000FEE7FEE7FEE7FEE7FEE7FEE7FEE7FEE746
:10029000FEE7FEE704480549054A064B70470000A3
:1002A0007B42000831010008D8060020D80C00204D
:1002B000D8080020D8080020704700001CB50C4664
:1002C000064B7B4469460090204600F098FC0446AB
:1002D0000020694600F0A6FC20461CBD5F09000016
:1002E0000FB4044910B503AA029800F0B7FC10BC83
:1002F0005DF814FB080000200FB41CB5084B06AADB
:100300007B4469460090059800F079FC0446002083
:10031000694600F087FC20461CBC5DF814FB000019
:100320002109000070B5044685690068C10601D541
:10033000302600E02026C00707D070BDD4E9012197
:1003400030469047206A401C20626D1EF6D570BD75
:1003500070B5044685690078C00707D170BDD4E93F
:10036000012120209047206A401C20626D1EF6D596
:1003700070BD70B50C460546012A05D02878800668
:1003800000D5EA69002302E0012305E05B1C9342EB
:1003900002D2E05C0028F9D1A869E618C01AA86169
:1003A000286A184428622846FFF7BCFF04E0D5E914
:1003B000012114F8010B9047B442F8D32846FFF707
:1003C000C7FF70BD2DE9F04106460024106875296D
:1003D000314616A510D000F07FF9002802DA40421D
:1003E00013A507E031688A0701D512A502E0490785
:1003F00004D511A5012401E000F077F900210A22BB
:1004000006F1240709E0B0FBF2FCB0FBF2F302FBBB
:100410001C00303078541846491C0028F3D123467C
:100420002A463046BDE8F04100F068B900000000FF
:100430002D0000002B00000020000000F0B40D464D
:100440000188090502D5214C7C4402E01F4C7C4404
:100450000E34002100F1240608E002F00F07120913
:10046000E75D42EA03721B097754491C52EA03070D
:10047000F3D102780023120704D5702D06D009B1FC
:10048000022311342246F0BC00F038B901231034A5
:10049000F8E770B504460D462146106800F025F9CE
:1004A000024629462046BDE870400023C6E7D21D1B
:1004B00022F00703D3E90023C0E70368126843F082
:1004C000200303600823C3610023B7E7FFA20000F5
:1004D0002DE9F05F894604464FF0000ADFF874B159
:1004E000FB44C0F820A02046E1688847002874D06B
:1004F000252806D0D4E901219047206A401C2062BB
:10050000F1E700265F462046E16888472028054637
:1005100007DB312D05D2781910F8200C08B10643FD
:10052000F1E7B00701D526F00406C4F81CA00027A7
:10053000C4F818A02A2D09D0284604F03BF938B396
:1005400004EB8708303DC8F8185019E059F8041B2F
:10055000204604EB87029161E1688847012F054638
:1005600018D1E069002820DA26F020061DE0D8F82E
:10057000180000EB800005EB40003038C8F8180088
:100580002046E1688847054604F014F90028EED1BA
:10059000012F0AD02E2D08D12046E16888477F1C04
:1005A0000546022F46F02006C4DBA069002803DAC6
:1005B000404246F00106A061F00701D026F0100687
:1005C0006C2D0BD0682D09D04C2D39D06A2D35D02B
:1005D000742D35D07A2D33D016E038E0E1682F46FF
:1005E00020468847B842054609D16C2F26D04FF4E3
:1005F0008060E168064320468847054604E06C2F8A
:100600001AD04FF4807006430DB3A5F141001928AC
:1006100002D8203546F400664A4629462046266020
:100620004E46FFF7BFFD80B101280BD0F61D26F026
:10063000070000F1080956E74020E4E78020D8E7EA
:100640000020D6E706F104094DE7284652E7206A64
:10065000BDE8F09F8FA2000030B505460B462A4644
:1006600013F8014B12F8010B08B1A042F8D01CB1ED
:10067000002802D06D1CF1E7284630BD10B5431CA0
:1006800002E010F8011B71B18107FAD14FF001327D
:1006900002C88C1A8C4314EAC211F9D0C01A0A0697
:1006A00003D0C01E10BDC01A10BD0A0401D0801EA8
:1006B00010BD0902FCD0401E10BD70477047704746
:1006C000704710B500F0B4FB006810BD10B50446CB
:1006D00000F0AEFB046010BD09684A0501D540B2C8
:1006E0007047C905FCD500B2704709684A0501D5B5
:1006F000C0B27047C905FCD580B270472DE9F047FC
:100700000D4699469246044600F124080168880681
:1007100004D5E06921F01001216000E00120A84229
:1007200001DD471B00E00027A1697A1902EB0900EF
:10073000081AA0612078C00602D42046FFF7F2FD17
:10074000002608E0D4E901211AF806009047206A43
:10075000401C761C20624E45F4DB2078C0060AD58A
:100760002046FFF7DFFD06E0D4E901213020904765
:10077000206A401C2062381EA7F10107F4DC07E064
:10078000D4E9012118F805009047206A401C206236
:10079000281EA5F10105F3DC2046FFF7D9FD2078DE
:1007A000000602D50220BDE8F0870120FBE71168B2
:1007B0000268006A530501D508700AE0D30501D527
:1007C000088006E0130603D5C217C1E9000200E065
:1007D00008600120704770472DE9FF4F0C461E4608
:1007E0004FF0FF378BB0D2E90001DDF860800A904E
:1007F0008A46C1F30A5505B93D46002108464FF027
:100800000000BAF1000F00F4400005DA00EB8000B0
:100810004FF4400101EA50004FEA9059B9F1010F3D
:1008200000DDB9460A9850EA4A000ED044F610504E
:10083000A5F2FF3545432F14B8F1000F1ED07542C5
:10084000291E1EDDC9F100021CE0B8F1010F4FF0B6
:10085000000001D0302103E0F24305E02154401CA8
:10086000B042FBDB30460022002121540B99C1F835
:100870000880C1E900200FB0BDE8F08FBD1B6D1CE2
:10088000DEE74A4600DA694206A800F0EFFC06AB54
:1008900093E8070003AB83E8070050460A9900F08D
:1008A000F7FD8DE80700A0F500501F380090039871
:1008B000002D0ADD42F21F014A460844002303A925
:1008C0000390684601F060F809E0A0F500504A4640
:1008D0001F38002303A90390684601F06AF88DE8E9
:1008E00007000004000C03D04FF0FF30410800E087
:1008F0001046B8F1000F03D00022009215461EE00A
:10090000751E05D400F098FA303262556D1EF9D587
:10091000B3460122084302D000227F1C04E0207865
:10092000302801D100227F1E002A099784D01DE0C3
:10093000112D07DA00F080FA303262556D1C50EA52
:100940000102F5D1084302D00098C8B10EE00021A1
:10095000681E05E0235C625C63542254401E491CFF
:100960008142F7DBAB46A81B401E0990002004F82B
:100970000B000B98099AC0F80880C0E9002B7AE7B1
:1009800011264FF0000857E72DE9F04F884604463E
:10099000D21D22F0070191B0D1E90001CDE90A0191
:1009A00003F062FE02460B98C00F01D02D2007E035
:1009B0002068810701D52B2002E0202101EAC00038
:1009C000032A099001D0072A05DB03464146204649
:1009D00000F0F6FB0BE12078800601D5E06900E02D
:1009E0000620B8F1650F814606D0B8F1660F18D021
:1009F000B8F1670F70D131E00020B9F1110F00900C
:100A000001DB112301E009F101030AAA01A90CA8E5
:100A1000FFF7E2FEDDE90C70002609F101058346CF
:100A200047E001204B4600904FF000470AAA01A979
:100A30000CA8FFF7D1FEDDE90DB00C995D4600264C
:100A400010B909F101000D18B9EB050003D4C0F18C
:100A5000FF3609F10105A5EB09002BE0B9F1010F03
:100A600001DA4FF001090020B9F1110F009048465A
:100A700001DD112300E003460AAA01A90CA8FFF733
:100A8000ABFEDDE90C704D4600268346207800075A
:100A90000AD4AB4500DA5D4601A8012D04DD4119F9
:100AA00011F8011C302907D04F4502DA17F1040F65
:100AB00004DA012082460FE06D1EEEE7002F02DC13
:100AC000ED1B3E4403E0781CA84200DD7D1CB81BF2
:100AD00000F1010A4FF000472078000703D4AA452F
:100AE00001DB4FF0FF3A0021B7F1004F0DF1430851
:100AF0008DF8431024D002202B23002F01DA7F42EF
:100B00002D230A21021EA0F1010000DC5FB197FB3A
:100B1000F1FC97FBF1F201FB1C7C17460CF1300C49
:100B200008F801CDEEE7A8F101000370218809055E
:100B300001D5452100E06521A0F1010800F8011C64
:100B400009980FA9A1EB0807FF1D00B10120411969
:100B500001EBEA70A1693844081A401EA0612078B0
:100B6000C00602D42046FFF7DDFB099828B1D4E97E
:100B700001219047206A401C20622078C00622D5BF
:100B80002046FFF7CFFB1EE0002E04DBB34502DD5D
:100B900001A8805D00E03020D4E901219047206A5F
:100BA000401C2062761CAAF101005FEA000A0AD10B
:100BB00000F03AF9C0680168405CD4E9012190472F
:100BC000206A401C2062281EA5F10105DCDC07E03C
:100BD000D4E9012118F8010B9047206A401C2062DB
:100BE000381EA7F10107F3DC2046FFF7B1FB032015
:100BF00011B041E601694A1C02610878704700B5EE
:100C00008FB0CDE901310021059105497944CDE945
:100C1000031011466846FFF75BFC0FB000BD0000F3
:100C2000E5FFFFFF0A6802F8010B0A60704710B584
:100C3000436913B1AFF3008001E0FFF79AFB012095
:100C400010BD127800F124010A7000224A700122BE
:100C5000EDE711684FF0FF32E9E70000074B70B590
:100C60000D467B44FFF7CBFF0446284600F070FB9F
:100C700010B14FF0FF3070BD204670BD1749000025
:100C80002DE9FF5F15468A460446DFF8AC80F8443C
:100C90000027D8E900103E46CDE9001010E03AF8F0
:100CA00016106A4602A800F057FB411C07D02178B5
:100CB000890603D5E269391891420DD80744761C9C
:100CC0002078800602D5E069B84205DDAE42E6DB59
:100CD0003AF816000028E2D1A069C01BA0612046A6
:100CE000FFF720FBD8E90010CDE90010002017E045
:100CF0003AF818106A4602A800F02EFBB0F1FF3F48
:100D000081460BD000250DF1080B05E0D4E9012147
:100D10001BF8050090476D1C4D45F7D308F1010005
:100D2000B0428046E4DB206A384420622046FFF768
:100D30000FFBBDE8FF9F00007E9B00002DE9F04106
:100D40008046D21D22F007020025D2E90002F529D3
:100D500015A614D0011E72F1000106DA0023D0EBB3
:100D6000030063EB020211A608E0D8F800108B071D
:100D700001D50FA602E0490701D50EA601251146AF
:100D8000002408F1240704E000F056F830323A5508
:100D9000641C50EA0102F7D12B46324621464046F8
:100DA000BDE8F041FFF7AABC000000002D000000E4
:100DB0002B0000002000000030B4002100F12404CA
:100DC00008E002F00705D208303542EA4372DB083A
:100DD0006554491C52EA0305F3D10468002310A2AC
:100DE000250707D5A40600D421B1C46901230DA2AB
:100DF000641EC46130BCFFF781BC10B504462146B7
:100E00001068FFF772FC02462046BDE81040002340
:100E1000D2E7D21D22F00701D1E90023CCE7000080
:100E200000000000300000000048704794060020D9
:100E3000004870477406002030B5B0F10A024FEA4E
:100E4000900E71F100034EEA817EB0EB0E0061EB73
:100E500091014FEA101E4EEA017E10EB0E0041EBAD
:100E600011114FEA102E4EEA016E10EB0E0041EB0D
:100E700011214FEA104E4EEA014E10EB0E0041EBED
:100E80001141401841F100014FEAD00040EA4170A1
:100E90004FEAD10110EB80054FEA810444EA9074D7
:100EA00044EB01046D1944EB0404521BA3414FF0C1
:100EB000000348BF0A3200D530BD401C41F100019B
:100EC00030BD00002DE9F04F04460D46D21D22F042
:100ED000070089B0D0E900974846394603F0C4FBC3
:100EE0000246F80F01D02D2307E02068810701D5C5
:100EF0002B2302E0202101EAC0038DF820300BB142
:100F0000012000E00020032A824601D0072A04DBEA
:100F10002946204600F054F93FE12078800601D4AC
:100F20000D2500E0E569C7F30A560D2D49DA0021C9
:100F30004FEA175B08464FF00000002F00F4400016
:100F400007DA00EB80004FF4400100EBD07001EABB
:100F500060008115012901DD4FF0FF3100224FEAC9
:100F6000850CBCF1180F06D31346ACF118004FF0F6
:100F70008052C24003E04FF4801323FA0CF30CF1CB
:100F80000C0CBCF1200F04D3ACF1200C09FA0CF0CE
:100F900001E007FA0CF000294FF0004801DD18B914
:100FA0000FE00ED140450CD319EB02095F4121B986
:100FB000404502D19F4329EA0209BBEB175F00D0ED
:100FC000761C2088000502D57B48784402E07A48E8
:100FD0007844193808AA302302F80A30037C0AF151
:100FE0000101002E0AF1020A53546A4602DC4FF056
:100FF000300101E04FF031014FF001088DF8001091
:1010000002D0A6F2FF3603E059EA470100D06B4E4A
:10101000002D02DC2178090704D54FF002082E21AB
:101020008DF80110C44600210BE0C7F303433F01D4
:10103000C35C491C6D1E02F80830052908F101083F
:1010400001DA002DF1DC00210CE000EB1973491CE2
:101050001B786D1E082902F808304FEA091908F1BB
:10106000010801DA002DF0DC21688B0602D516E0BC
:10107000A8F10108E04505DD02EB080313F8013C87
:10108000302BF5D0B8F1000F09DD02EB080313F89F
:10109000013C2E2B03D1090701D4A8F10108002D32
:1010A00005DD3E2102F808106D1E08F10108407CA4
:1010B000002E02F8080008F1010804DA2D2076421B
:1010C00002F8080002E02B2002F808000A214FF481
:1010D0007A70864208F101080BDB96FBF0F330339F
:1010E00002F8083096FBF0F308F1010800FB1366E4
:1010F00001E0642E0CDB642096FBF0F3303302F841
:10110000083096FBF0F308F1010800FB136601E0DC
:101110000A2E06DB96FBF1F0303002F8080008F1E9
:10112000010896FBF1F001FB1060303002F8080076
:10113000A16908F1010808EB050202EB0A00081A90
:10114000A0612078C00602D42046FFF7EBF8216AA0
:1011500008AE01EB0A00206204E0D4E9012116F890
:10116000010B9047BAF1010AF7D22078C00602D5E8
:101170002046FFF7D7F86E4609E016F8010B3E2827
:101180000FD0D4E901219047206A401C2062B8F1B9
:101190000108F2D22046FFF7DBF809B00320BDE8D2
:1011A000F08F206A2844206203E0D4E90121302036
:1011B00090476D1EEBD3F8E76598000002FCFFFF37
:1011C0002DE9F0411F46044603260168072A01F471
:1011D000006004DB08B116A505E016A503E008B120
:1011E00015A500E015A521F010002060A069C01E23
:1011F000A0610FB1401EA0612046FFF793F84FB1E8
:10120000D4E9012138469047206A401C2062C01C66
:10121000206206E0206AFAE7D4E9012115F8010B03
:101220009047761EF8D22046FFF792F8BDE8F0818D
:101230004E414E006E616E00494E4600696E66007A
:1012400010B5436913B1AFF3008001E0FFF718FD5B
:10125000012010BD128800F1240182840022C28482
:101260000122EDE711684FF0FF32E9E72DE9F04781
:10127000814616468AB0354878440DC88DE80D0081
:1012800032487844801C03AC0DC884E80D0041F658
:101290009B300844372190FBF1F290FBF1F5A5F16A
:1012A000800501FB12041B3C02D56442012000E0D2
:1012B0000020DFF898A080460027FA44AAF1BE0A71
:1012C0000EE0E0070AD03246684607EB47010123EB
:1012D0000AEB810100F06DFB8DE8070064107F1CB4
:1012E000002CEED1194F7F44AE3F19E0E80715D02E
:1012F00007EB04100DF1180A90E80E008AE80E00C2
:10130000C068F04201D1981908903246012306A91D
:1013100003A800F04EFB03AB83E807006D10641CCC
:10132000002DE3D14FF0010332466946B8F1000FBA
:1013300003A802D000F028FB01E000F03AFBC9E965
:101340000001C9F808200AB0BDE8F08748960000FF
:10135000007B00F08000704770B516460C460546CD
:1013600000F044F8036893F80101012806D0FF2C2F
:101370000FD8185D68B101202C7070BDD3F807013B
:101380003246214603F2071303442846BDE8704065
:1013900018474FF0FF3070BD0048704774060020BA
:1013A0007546FFF7F9FFAE4605006946534620F043
:1013B0000700854618B020B5FEF76CFFBDE8204059
:1013C0004FF000064FF000074FF000084FF0000B01
:1013D00021F00701AC46ACE8C009ACE8C009ACE8B4
:1013E000C009ACE8C0098D467047000010B5FFF792
:1013F0001BFD001D10BD00BF7153000010B5044659
:10140000AFF300802046BDE81040FEF72EBF00007D
:101410004FF0013C50F8042B51F8043B9A4221D183
:10142000A2EB0C03934313EACC1317D150F8042B0F
:1014300051F8043B9A4215D1A2EB0C03934313EAF3
:10144000CC130BD150F8042B51F8043B9A4209D12C
:10145000A2EB0C03934313EACC13DBD04FF0000054
:10146000704700BFD01A01BAB1FA81F101F018013A
:1014700022FA01F0CB40C1F12001DBB2C0B2C01AA8
:101480002CFA01F3D11A914311EAC311E6D1704746
:101490005FEA400C08BF91F0000F4FEA8C234FEA3F
:1014A000C12243EA51514FEA1C5018BF00F5F040E9
:1014B0004FEA300018BF41F000415FEA6C5C00F079
:1014C0002980BCF1FF3F08BF40F080407047130CFB
:1014D00006BF12044FF0100C4FF0000C130E04BFA7
:1014E00012020CF1080C130F04BF12010CF1040CD2
:1014F000930F04BF92000CF1020CD30F04BF5200F3
:101500000CF1010C11464FF00002A0F11F00A0EBFE
:101510000C00704711F0004F08BF704731F00041D8
:101520003FF4D5AF0B0C06BF09044FF0100C4FF081
:10153000000C0B0E04BF09020CF1080C0B0F04BFCA
:1015400009010CF1040C8B0F04BF89000CF1020C93
:10155000CB0F04BF49000CF1010CCCF12003A0EB30
:101560000C0022FA03F302FA0CF241EA030100F143
:101570000100704720F07F4C80EA030023F07F4792
:10158000ACEB070303F57C5300F0004003F1FF03CD
:101590002DE980494FEA154B09B44FEA144325EA77
:1015A0000B4E24EA03480FF2042606EB13274908E2
:1015B0003E785FEA320203FB0667C7F5000707FBC8
:1015C00006F64FEA54374FEAD64606F1020607FB05
:1015D000066CCCF1005C4FEA1C472CEA074C07FB79
:1015E00006F40CFB06F504EB15464FEA961634BFDD
:1015F00000204FF000404FEAD13706FB07FC4FEACE
:101600001C4C0CFB0BF7D21B03FB0CF761EB070127
:101610000CFB0EF7B0EB074072EB17420CFB08F720
:1016200034BFA2EB0742B2EB074261EB17414FEA2E
:101630000C444FEA910706FB07FC4FEA1C4C0CFBDD
:101640000BF7B0EBC74072EB573203FB0CF734BF1C
:10165000A2EBC742B2EBC74261EB57310CFB0EF76E
:10166000B0EBC70072EB57720CFB08F734BFA2EB6C
:10167000C702B2EBC70261EB5771039F4FEA81616A
:1016800041EA921104EBCC044FEAD1374FEA82626F
:1016900006FB07FC42EA90124FEA80604FEA1C4CBE
:1016A0000CFB0BF7D21B03FB0CF761EB07010CFBE8
:1016B0000EF7B0EB074072EB17420CFB08F734BF94
:1016C000A2EB0742B2EB074261EB17414FEA8C55A0
:1016D0004FEA910704EB9C2406FB07FC4FEA1C4CE5
:1016E0000CFB0BF7B0EBC74072EB573203FB0CF768
:1016F00034BFA2EBC742B2EBC74261EB57310CFBE0
:101700000EF7B0EBC70072EB57720CFB08F734BF53
:10171000A2EBC702B2EBC70261EB577115EB4C2588
:101720004FEA816141EA92114FEA82624FEAD13772
:1017300042EA901206FB07FC44F100044FEA806085
:101740004FEA1C4C0CFB0BF7D21B03FB0CF761EBB5
:1017500007010CFB0EF7B0EB074072EB17420CFBD6
:1017600008F734BFA2EB0742B2EB074261EB174127
:1017700015EB1C154FEA813141EA92414FEA823262
:1017800042EA90424FEA80304FEA0C7644F100047E
:1017900048EA03434EEA0B484FF0000EB2EB080C48
:1017A00071EB030724BF624639464EEB0E0E4FF035
:1017B000000B0018524149414BEB0B0BB2EB080CEC
:1017C00071EB03077BF1000B24BF624639464EEBF9
:1017D0000E0E4FF0000B0018524149414BEB0B0B22
:1017E000B2EB080C71EB03077BF1000B24BF6246E0
:1017F00039464EEB0E0E51EA020718BF46F00106BD
:1018000016EB0E7655F1000254F1000103D5BDE848
:101810008901BDE80088BDE88901BDE80048B61926
:10182000524141EB0101A3F10103704780807F7EAB
:101830007D7C7B7A79787776767574737271717046
:101840006F6E6E6D6C6C6B6A6A69686867666665F8
:101850006464636362616160605F5F5E5E5D5D5C86
:101860005C5B5B5A5A5959585857575656555555F7
:101870005454535352525251515050504F4F4F4E57
:101880004E4D4D4D4C4C4C4B4B4B4A4A4A494949A5
:1018900048484847474747464646454545444444E7
:1018A000444343434342424242414141002B9C4610
:1018B00030D477002BD01CB54FEA370703B44FF074
:1018C00010004FF01001BAF1000F06D0BCF1000F6C
:1018D000DCBF40F0080040F008014FF000000FBCF2
:1018E000BDE810400BF1010BBBF1010F08BF5FEA2F
:1018F000170722BF12F1010211F101014FF000415F
:1019000043F1000300F0004043EA00007047F9D3C0
:101910005708D0E746EA064613F1400F4FEA16464D
:101920001FDD13F1200FDFBF16430A4600212033CD
:101930005B42BED0C3F1200746EA064602FA07F72B
:101940004FEA164646EA0706C3F1200722FA03F2D9
:1019500001FA07F721FA03F14FF0000342EA070208
:10196000A7E746EA020646EA06464FEA164646EA70
:101970000106BCBF46EA0646360C4FF000034FF0A6
:1019800000024FF0000194E72DE9804C9A469346FF
:1019900070B491E8380007C831EA400C48BF34EA17
:1019A000430C03D5FFF7E6FDFFF780FFF0BCBDE871
:1019B000008C2DE9804C9A46934670B491E838002B
:1019C00007C810F0804F08BF13F0804F03D100F01C
:1019D00005F8FFF76BFFF0BCBDE8008C20F07F47F7
:1019E00080EA030023F07F4C07EB0C03A3F57C5344
:1019F00000F00040A3F1FE0392F0000F00F0B3806E
:101A000095F0000F00F077802DE901494FEA114071
:101A10004FEA144621EA004800FB06FC24EA064788
:101A200008FB06F607FB08F800FB07F718EB06486B
:101A30004CEB164C4FEA124B18EB07484FEA154691
:101A40004CEB174022EA0B4E0BFB06FC25EA06473F
:101A50000EFB06F607FB0EFE0BFB07F71EEB064E12
:101A60004CEB164C4FF000061EEB074E4CEB174BA1
:101A700018EB0B0840F1000018EB0E0B58EB0008B8
:101A800040F100008F1A4FF000013CBFC943661BB4
:101A900014BFB5EB040C00213CBFC943F61B4FEA51
:101AA00017444EEA8E0E27EA04454FEA1C4704FB12
:101AB00007622CEA074C05FB07F70CFB05F604FB55
:101AC0000CFC16EB074642EB174216EB0C4642EBBA
:101AD0001C421BEB060658EB0202414146EA9E06F9
:101AE00001D5BDE80189B619524141EB0101A3F1CD
:101AF0000103BDE801894FEA14454FEA114724EA82
:101B0000054621EA074C05FB07F406FB07F70CFB2B
:101B100006F105FB0CFC11EB074144EB17444FEABF
:101B2000124711EB0C4144EB1C4422EA074C05FB25
:101B300007F206FB07F70CFB06F605FB0CFC16EBA1
:101B4000074642EB174216EB0C4642EB1C456A185F
:101B500054F1000148BF7047B619524141EB0101F1
:101B6000A3F10103704795F0000F37D04FEA1142FF
:101B70004FEA144721EA024624EA074C02FB07F128
:101B800006FB07F70CFB06F402FB0CFC14EB074406
:101B900041EB17414FEA154714EB0C4441EB1C4154
:101BA00025EA074C02FB07F506FB07F70CFB06F6D8
:101BB00002FB0CFC16EB074645EB174516EB0C46F3
:101BC00045EB1C42121951F1000148BF7047B6198C
:101BD000524141EB0101A3F1010370474FEA144563
:101BE0004FEA114724EA054621EA074C05FB07F1B5
:101BF00006FB07F70CFB06F24FF0000605FB0CFC9A
:101C000012EB074241EB174112EB0C4251EB1C4126
:101C100048BF7047921841EB0101A3F101037047DF
:101C200070B5044600252068806800F00100F0B11E
:101C30002068806820F001002168886000F0BCFF07
:101C400005460EE000F0B8FF401B022809D9A06A43
:101C500040F01000A062E06A40F00100E062012064
:101C600070BD2068806800F001000028EAD10020E3
:101C7000F6E770B505466C6AA06A00F05000E0B95E
:101C8000A06A40F40070A0622068806800F46020C0
:101C9000B0F5602F0DD1207B58B9A06A20F4807078
:101CA000A062A06A00F4805018B9A06A40F0010058
:101CB000A062204600F050FA03E0206A016B28463B
:101CC000884770BD70B505466C6AA06A40F0400058
:101CD000A062E06A40F00400E062204600F03EFAB4
:101CE00070BD70B50446656A284600F036FA70BDCE
:101CF00038B504460025002000902068806800F078
:101D0000010080BB2068806840F001002168886085
:101D1000164800681649B0FBF1F0009002E0009808
:101D2000401E009000980028F9D100F045FF0546BC
:101D300013E000F041FF401B02280ED9A06A40F0DA
:101D40001000A062E06A40F00100E06200BF0020E5
:101D500084F8240000BF012038BD2068806800F0AE
:101D600001000028E5D00020F6E700000000002078
:101D700040420F0000201EE00022104B43F82020BC
:101D800000210DE00E4A02EB410232F810200B4B0D
:101D900053F820301A44094B43F820204A1CD1B292
:101DA0000829EFDB054A52F82020D208034B43F8FC
:101DB0002020421CD0B20128DEDB7047200000202A
:101DC0002406002000BFFEE730B590F84050012403
:101DD000AC40C56B6C60046863604468102C04D12F
:101DE0000468A2600468E16003E00468A16004681C
:101DF000E26030BD704710B54FF4007000F016FD82
:101E000010BD000011E000BF01222021074800F0B2
:101E1000CDFE00BF4FF47A7002F06CFF00BF0022CD
:101E20002021024800F0C2FE00BFECE7001801408C
:101E300070B504460025002607E006480068054402
:101E4000052002F057FF701CC6B2A642F5DBB5FBB9
:101E5000F4F070BD200000202DE9F14F88B0089803
:101E6000FFF7E6FF0490049805F02CFB054619499E
:101E700005F040FB04464FF08B4105F061FA0690F7
:101E8000069805F031FA0446134A144B04F01CFF7F
:101E9000CDE90201069805F027FA0646104A114BD3
:101EA00004F012FF044600220F4B04F061FDCDE95F
:101EB0000001DDE9022305F02DF980460B4A0C4BA9
:101EC00003F066FD824604F065FC0590059809B0B4
:101ED000BDE8F08F0000A0407B14AE47E17A1C40C3
:101EE0005C8FC2F528A07340008037403C75A60B7C
:101EF000AD0FF33FF8B5044600260020009000BF68
:101F000094F82400012801D10220F8BD012084F8B2
:101F1000240000BF2046FFF783FE0646002E62D154
:101F2000A06A20F4885040F00200A062022000F075
:101F3000E7FE30490968B1FBF0F04000009002E094
:101F40000098401E009000980028F9D12046FFF725
:101F5000CFFE2068806840F008002168886000F0AB
:101F60002BFE054611E000F027FE401B0A280CD985
:101F7000A06A20F0020040F01000A06200BF002024
:101F800084F8240000BF0120BFE72068806800F0CB
:101F900008000028E7D12068806840F0040021682C
:101FA000886000F009FE054611E000F005FE401BC8
:101FB0000A280CD9A06A20F0020040F01000A062AC
:101FC00000BF002084F8240000BF01209DE72068A6
:101FD000806800F004000028E7D1A06A20F0020029
:101FE00040F00100A06200BF002084F8240000BF80
:101FF00030468AE70000002038B502460023002062
:10200000009000BF92F82400012801D1022038BDC1
:10201000012082F8240000BF4868072812D2106807
:10202000406B0C79641E04EB84051F24AC40A04374
:102030000D796D1E05EB85050C68AC4020431468D6
:10204000606327E048680D2812D21068006B0C7995
:10205000E41F04EB84051F24AC40A0430D79ED1F61
:1020600005EB85050C68AC4020431468206311E043
:102070001068C06A0C790D3C04EB84051F24AC4049
:10208000A0430D790D3D05EB85050C68AC40204360
:102090001468E06208680A2812D31068C0680C78D7
:1020A0000A3C04EB44050724AC40A0430D780A3DEC
:1020B00005EB45058C68AC4020431468E0600FE0F8
:1020C000106800690C7804EB44050724AC40A04379
:1020D0000D7805EB45058C68AC4020431468206101
:1020E0000868102802D00868112827D1174C1068FA
:1020F000A0421ED11068806800F40000F0B910689A
:10210000806840F400001468A0600868102815D1A9
:102110000F4800680F4CB0FBF4F000EB800040006B
:10212000009002E00098401E009000980028F9D12D
:1021300004E0906A40F020009062012300BF00207C
:1021400082F8240000BF184661E700000024014027
:102150000000002040420F007047704770470000A9
:102160002DE9F0410446002700250026A84614B9B1
:102170000120BDE8F081A06810B1207D00B100BF52
:10218000A06A30B90020E06284F82400204600F004
:1021900097F82046FFF744FD0746A06A00F01000BC
:1021A000002873D1002F7ED1A06A20F4885040F01F
:1021B0000200A0623F4AD4E90001904208D1E069E0
:1021C000B0F5402F02D14FF4002002E0E06900E0BA
:1021D000E0690143207B41EA40000643A068B0F576
:1021E000807F02D0A068012802D14FF4807000E007
:1021F00000200543207D012811D1207B38B9A0693A
:10220000401E4FF4006141EA4030054307E0A06AF8
:1022100040F02000A062E06A40F00100E062206827
:10222000406820F46940284321684860206880683D
:1022300021490840304321688860A068B0F5807F5C
:1022400002D0A068012802D14FF4807000E0002085
:10225000B0F5807F03D1208A401E4FEA00582068E5
:10226000C06A20F4700040EA08002168C862206853
:10227000806812490840B04209D10020E062A06A9B
:1022800020F0020040F00100A06211E00BE0A06A23
:1022900020F0020040F01000A062E06A40F001006F
:1022A000E062012704E0A06A40F01000A06201276C
:1022B00038465EE7003C0140FDF7E1FFFE0E1FFFE0
:1022C00010B586B004462049206888423AD10022E1
:1022D00011460B2000F0C1FC0B2000F0AEFC00BF4B
:1022E0001A48806940F4007018498861084680697E
:1022F00000F40070019000BF00BF00BF0846806975
:1023000040F0100088610846806900F010000190DC
:1023100000BF00BF00BF0846406940F001004861AF
:102320000846406900F00100019000BF00BF062090
:102330000290032003900020049002A9044800F0BA
:1023400083FA00BF06B010BD002401400010024017
:10235000001001402DE9F04104460D4616460027C5
:1023600057492068884203D056492068884205D1E1
:102370005348001D006800F4702000E00020002891
:102380007ED100BF94F82400012802D10220BDE8CC
:10239000F081012084F8240000BF2046FFF7A8FC4C
:1023A0000746002F6DD1A06A40F60161884340F4D2
:1023B0008070A06243492068884209D14048001DCE
:1023C000006800F4702008B9012002E0002000E05D
:1023D000012078B1A06A20F48010A06220684068D3
:1023E00000F4806000B3A06A20F4005040F48050F4
:1023F000A06219E0A06A40F48010A0623049206811
:10240000884203D02F492068884205D12C48001DFE
:10241000006800F4806000E0002028B1A06A20F489
:10242000005040F48050A062A06A00F4805020B1B7
:10243000E06A20F00600E06201E00020E06200BFF8
:10244000002084F8240000BF1F48216A88621F48CA
:10245000216AC8621E48216A08636FF00200216881
:1024600008602068806840F4807021688860226875
:1024700002F14C0133462A46206A00F07EF901E061
:102480001AE014E02068806800F46020B0F5602F46
:1024900006D12068806840F4A000216888600CE0C4
:1024A0002068806840F480102168886005E000BFE3
:1024B000002084F8240000E00127384667E7000088
:1024C0000024014000280140731C0008E31C0008A0
:1024D000C51C000870B50446002594F821000228A8
:1024E00003D00420A0630125C1E02068006820F02B
:1024F0000E00216808602068006820F00100216853
:1025000008605C492068884252D95A497839206865
:10251000884201D1012047E0564964392068884249
:1025200001D1102040E0534950392068884201D140
:10253000801539E04F493C392068884201D1801428
:1025400032E04C4928392068884202D14FF480306B
:102550002AE0484914392068884202D14FF480109B
:1025600022E044492068884201D140041CE04249ED
:102570002068884201D1012016E03F4914312068CB
:10258000884201D110200FE03B4928312068884261
:1025900001D1801508E038493C312068884201D1DA
:1025A000801401E04FF480303349091F086051E086
:1025B000304978392068884201D1012047E02D490F
:1025C00064392068884201D1102040E029495039FF
:1025D0002068884201D1801539E026493C392068BD
:1025E000884201D1801432E022492839206888428B
:1025F00002D14FF480302AE01E4914392068884205
:1026000002D14FF4801022E01A492068884201D19B
:1026100040041CE018492068884201D1012016E0DE
:10262000154914312068884201D110200FE0124969
:1026300028312068884201D1801508E00E493C31DC
:102640002068884201D1801401E04FF480300949AC
:1026500080394860012084F8210000BF002084F800
:10266000200000BF606B10B12046616B8847284690
:1026700070BD0000800002400804024001460022B4
:1026800009B9012070471E4B086898420BD21D4BB8
:102690000868C01A1423B0FBF3F0800008641948DE
:1026A0000838C8630AE0164B0868C01A1423B0FB48
:1026B000F3F08000086412480838C863022081F8EB
:1026C00021000868026843F6F0708243D1E90103F3
:1026D0001843CB6818430B6918434B6918438B693F
:1026E0001843CB69184302430868026000208863DE
:1026F000012081F82100002081F8200000BFC1E7FF
:1027000008040240080002402DE9F04104460D464D
:1027100016461F464FF0000800BF94F8200001281D
:1027200002D10220BDE8F081012084F8200000BF22
:1027300094F82100012817D1022084F821000020FC
:10274000A0632068006820F00100216808603B4613
:10275000324629462046FFF737FB2068006840F0E4
:1027600001002168086006E000BF002084F8200016
:1027700000BF4FF002084046D4E72DE9F04104467F
:102780000D4616461F464FF0000800BF94F8200083
:10279000012802D10220BDE8F081012084F8200048
:1027A00000BF94F8210001282CD1022084F82100D8
:1027B0000020A0632068006820F001002168086004
:1027C0003B46324629462046FFF7FEFAE06A30B122
:1027D0002068006840F00E00216808600BE0206867
:1027E000006820F00400216808602068006840F05C
:1027F0000A00216808602068006840F00100216834
:10280000086006E000BF002084F8200000BF4FF001
:1028100002084046BFE70000B0F5007F02D1012169
:10282000014A1170704700001A00002010B50446DC
:1028300004480068204020B1024804602046FFF7A9
:10284000EBFF10BD140401402DE9F84702460023B8
:102850009C467BE14FF0010808FA03F4D1F80080B0
:1028600008EA0400A0427DD1DFF8F4A2D1F8048088
:10287000A8EB0A09D0453AD014DCB8F1030F50D0C8
:1028800009DCB8F1000F31D0B8F1010F1CD0B8F15C
:10289000020F49D120E0B8F1110F18D0B8F1120F92
:1028A00042D11EE0B9F5881F25D006DCB9F5803F7E
:1028B00020D0B9F5801F37D11AE0B9F5001F18D024
:1028C000B9F5041F30D117E0D1F80CC02DE0D1F8D4
:1028D0000C8008F1040C28E0D1F80C8008F1080CF9
:1028E00023E0D1F80C8008F10C0C1EE000BF00BF03
:1028F00000BF00BF00BF00BFD1F80880B8F1000FD3
:1029000002D14FF0040C0BE0D1F80880B8F1010FB0
:1029100003D14FF0080C146102E04FF0080C546131
:1029200003E04FF0000C00E000BF00BFFF2801D81B
:10293000904601E002F104084646FF2802D84FEA1B
:10294000830803E0A3F108084FEA88084746D6F851
:1029500000804FF00F0909FA07F928EA09080CFA74
:1029600007F900E07AE048EA0908C6F80080D1F8E3
:10297000048008F08058B8F1805F6FD100BFDFF8A5
:10298000E481D8F8188048F00108DFF8D891C9F838
:102990001880C846D8F8188008F00108CDF80080E3
:1029A00000BF00BF4FEAB9384FEA930958F82950E1
:1029B0004FEA83784FEA18794FF00F0808FA09F8C0
:1029C00025EA0805DFF8A081424502D14FF0000852
:1029D00024E0DFF89881424502D14FF001081DE064
:1029E000DFF88C81424502D14FF0020816E0DFF893
:1029F0008481424502D14FF003080FE0DFF878816F
:102A0000424502D14FF0040808E0DFF870814245EA
:102A100002D14FF0050801E04FF006084FEA837934
:102A20004FEA197908FA09F848EA0505DFF85081F4
:102A30004FEA930948F82950D1F8048008F4803807
:102A4000B8F5803F0BD1DFF83C81D8F8008048EA28
:102A50000008DFF83091C9F800800AE075E0DFF87F
:102A60002481D8F8008028EA0008DFF81891C9F816
:102A70000080D1F8048008F40038B8F5003F0ED18A
:102A8000DFF8008108F10408D8F8008048EA00085F
:102A9000DFF8F09009F10409C9F800800DE0DFF8D3
:102AA000E48008F10408D8F8008028EA0008DFF87C
:102AB000D49009F10409C9F80080D1F8048008F421
:102AC0008018B8F5801F0ED1DFF8B88008F108082B
:102AD000D8F8008048EA0008DFF8A89009F1080952
:102AE000C9F800800DE0DFF89C8008F10808D8F8EC
:102AF000008028EA0008DFF88C9009F10809C9F87D
:102B00000080D1F8048008F40018B8F5001F0ED139
:102B1000DFF8708008F10C08D8F8008048EA000857
:102B2000DFF8609009F10C09C9F800800DE0DFF8CA
:102B3000548008F10C08D8F8008028EA0008DFF873
:102B4000449009F10C09C9F800805B1CD1F80080A1
:102B500028FA03F8B8F1000F7FF47CAEBDE8F887DF
:102B6000000011100010024000080140000C01405C
:102B7000001001400014014000180140001C0140F9
:102B80000800014000040140024693680B400BB16D
:102B9000012000E00020704710B5C26821EA02035E
:102BA00002EA010443EA0443036110BD0AB1016172
:102BB00001E00B04036170470148006870470000A2
:102BC0001000002010B50848006840F010000649C9
:102BD0000860052000F080F80F2000F007F800F0F2
:102BE0002BF8002010BD00000020024070B5044604
:102BF0000E4800784FF47A71B1FBF0F00C49096887
:102C0000B1FBF0F5284600F029FD08B1012070BDA8
:102C1000102C07D200222146501E00F01EF8054855
:102C2000046001E00120F2E70020F0E71800002036
:102C300000000020140000207047014608460028CC
:102C400009DB00F01F0301229A4043099B0003F1B6
:102C5000E023C3F8002100BF70472DE9F05F8046F4
:102C60000D461646002701F013FD074639462A4651
:102C7000334601F00700C0F1070ABAF1040F02D988
:102C80004FF0040A01E0C0F1070AD14600F1040A3E
:102C9000BAF1070F02D24FF0000A01E0A0F1030AD7
:102CA000D4464FF0010A0AFA09FAAAF1010A0AEA1F
:102CB000020A0AFA0CFA4FF0010B0BFA0CFBABF10B
:102CC000010B0BEA030B4AEA0B042146404601F0D4
:102CD000E7FCBDE8F09F000000BF00F00702064BD4
:102CE00019684FF6FF031940044B0B4343EA0221D6
:102CF000014B196000BF70470CED00E00000FA05C1
:102D00002DE9F04385B0064642A30FCB01AC0FC4BA
:102D100044A0006800904FF0000800250027002420
:102D2000A146042E36D004DC012E3BD0022E6BD1FE
:102D30005FE0082E32D0102E66D13B484468006810
:102D400000F0807000B301A8C4F38341475C04F431
:102D5000803070B134484068C0F340401DF80080B6
:102D600004F4803040B13148B0FBF8F000FB07F5C7
:102D700002E02F4807FB00F52B48406800F4800074
:102D8000B0F5800F01D1A94603E068000321B0FB34
:102D9000F1F93AE000F0D2F9814636E000F0CEF9E0
:102DA000814632E02048046A04F44070B0F5807F28
:102DB00005D104F0020010B14FF4004918E004F40A
:102DC0004070B0F5007F07D11748406A00F002005C
:102DD00010B149F640490BE004F44070B0F5407F73
:102DE00006D11148006800F4003008B14FF22449C0
:102DF0000BE000F093F90C494968C1F38131491C9B
:102E00004900B0FBF1F900E000BF00BF484605B043
:102E1000BDE8F08302030405060708090A0B0C0D40
:102E20000E0F1010010200000010024000127A0084
:102E300000093D00F8B5044600260025207800F082
:102E4000010000286BD000274348C06900F0805083
:102E500070B900BF4048C06940F080503E49C86129
:102E60000846C06900F08050009000BF00BF0127F5
:102E70003A48006800F48070B0B93848006840F4FF
:102E8000807036490860FFF797FE064606E0FFF7B8
:102E900093FE801B642801D90320F8BD2F480068E9
:102EA00000F480700028F2D02B48006A00F44075CE
:102EB0002DB3A08800F44070A84220D02648006AB4
:102EC00020F440750120264908600020086022484F
:102ED000056205F0010090B1FFF76EFE064608E0BE
:102EE000FFF76AFE801B41F28831884201D9032036
:102EF000D3E71948006A00F002000028F0D0164815
:102F0000006A20F440706168084313490862012F89
:102F100004D10846C06920F08050C86100BF207805
:102F200000F00200022807D10B48406820F440401E
:102F3000A168084308494860207800F01000102874
:102F400007D10548406820F48000616908430249C0
:102F500048600020A1E7000000100240007000401F
:102F60004004424270B504460D460CB9012070BDC4
:102F70005A48006800F00700A8420ED2574800687F
:102F800020F007002843554908600846006800F013
:102F90000700A84201D00120E9E7207800F00200F4
:102FA00002281DD1207800F00400042805D14C48E7
:102FB000406840F4E0604A494860207800F008002A
:102FC000082805D14648406840F4605044494860AC
:102FD0004348406820F0F000A16808434049486039
:102FE000207800F0010078B36068012806D13C48E1
:102FF000006800F4003090B90120B8E7606802284A
:1030000006D13748006800F0007040B90120AEE7F3
:103010003348006800F0020008B90120A7E73048F3
:10302000406820F00300616808432D494860FFF7BD
:10303000C3FD064609E0FFF7BFFD801B41F2883162
:10304000884202D9032092E707E02548406800F053
:103050000C006168B0EB810FEDD12048006800F0F2
:103060000700A8420ED91D48006820F00700284339
:103070001A4908600846006800F00700A84201D01D
:10308000012074E7207800F00400042807D11448D8
:10309000406820F4E060E168084311494860207806
:1030A00000F00800082808D10D48406820F460505E
:1030B000216940EAC1000A49486000F03FF8084928
:1030C0004968C1F30311074A515CC84006490860CA
:1030D00006480068FFF78AFD002048E7002002400C
:1030E0000010024084770008000000201400002037
:1030F00001480068704700000000002000B5FFF79D
:10310000F7FF04494968C1F30221034A515CC840F2
:1031100000BD0000001002409477000800B5FFF7E2
:10312000E7FF04494968C1F3C221034A515CC84022
:1031300000BD00000010024094770008F0B585B093
:103140000FF26C0C9CE8E01001A8A0E8E0101CA5B0
:103150002D68009500210022002300240020194D35
:10316000696801F00C05F5B1042D02D0082D19D1C4
:1031700001E0154819E001ADC1F38346AC5D01F4EF
:10318000803555B10F4D6D68C5F340451DF80520DC
:103190000D4D6543B5FBF2F302E00C4D04FB05F366
:1031A000184602E000BF084800BF00BF05B0F0BDF0
:1031B00002030405060708090A0B0C0D0E0F101078
:1031C000010200000010024000127A0000093D00D8
:1031D000F8B504460CB90120F8BD207800F00100D4
:1031E000002878D0F848406800F00C0004280CD083
:1031F000F548406800F00C00082811D1F2484068FA
:1032000000F48030B0F5803F0AD1EF48006800F448
:10321000003000285FD0606800285CD10120DBE727
:1032200000BF6068B0F5803F06D1E748006840F411
:103230008030E549086028E0606858B9E2480068D5
:1032400020F48030E04908600846006820F48020BF
:1032500008601AE06068B0F5A02F0BD1DA4800686A
:1032600040F48020D84908600846006840F4803067
:1032700008600AE0D448006820F48030D249086031
:103280000846006820F48020086000BF606888B1AC
:10329000FFF792FC054606E0FFF78EFC401B642812
:1032A00001D9032098E7C848006800F400300028DE
:1032B000F2D010E0FFF780FC054606E0FFF77CFC4B
:1032C000401B642801D9032086E7BF48006800F44A
:1032D00000300028F2D1207800F00200022857D1F7
:1032E000B948406800F00C0050B1B748406800F0A1
:1032F0000C00082818D1B448406800F4803098B910
:10330000B148006800F0020020B12069012801D016
:10331000012061E7AC48006820F0F800616940EAEC
:10332000C100A949086033E02069E8B10120A7493C
:103330000860FFF741FC054606E0FFF73DFC401B37
:10334000022801D9032047E79F48006800F00200E7
:103350000028F2D09C48006820F0F800616940EA3B
:10336000C1009949086013E0002098490860FFF700
:1033700023FC054606E0FFF71FFC401B022801D98D
:10338000032029E79048006800F002000028F2D1ED
:10339000207800F0080008282DD1A069B8B10120DC
:1033A0008B490860FFF708FC054606E0FFF704FCC0
:1033B000401B022801D903200EE78348406A00F031
:1033C00002000028F2D0012000F042FF13E00020AC
:1033D0007F490860FFF7F0FB054606E0FFF7ECFBCE
:1033E000401B022801D90320F6E67748406A00F026
:1033F00002000028F2D1207800F00400042873D1E4
:1034000000277148C06900F0805070B900BF6E4855
:10341000C06940F080506C49C8610846C06900F03E
:103420008050009000BF00BF01276A48006800F488
:103430008070B0B96748006840F4807065490860E2
:10344000FFF7BAFB054606E0FFF7B6FB401B642812
:1034500001D90320C0E65F48006800F480700028AE
:10346000F2D000BFE068012806D15748006A40F05A
:1034700001005549086227E0E06858B95248006ADF
:1034800020F00100504908620846006A20F004005C
:10349000086219E0E06805280BD14B48006A40F04B
:1034A0000400494908620846006A40F001000862C9
:1034B0000AE04548006A20F00100434908620846D6
:1034C000006A20F00400086200BFE068A0B1FFF7C6
:1034D00073FB054609E0FFF76FFB401B41F28831A3
:1034E000884202D9032077E622E03748006A00F0DC
:1034F00002000028EFD012E0FFF75EFB054608E06F
:10350000FFF75AFB401B41F28831884201D9032062
:1035100062E62D48006A00F002000028F0D1012F79
:1035200005D12948C06920F080502749C86100BFF3
:10353000E069C8B32448406800F00C00082860D057
:10354000E069022848D1002020490866FFF734FBD3
:10355000054606E0FFF730FB401B022801D9032097
:103560003AE61948006800F000700028F2D1206A9D
:10357000B0F5803F07D11448406820F40030A168BE
:10358000084311494860D4E9080108430E494968D5
:1035900021F4741108430C49486001200B49086666
:1035A000FFF70AFB054607E03DE0FFF705FB401B80
:1035B000022801D903200FE60348006800F00070DC
:1035C0000028F2D02FE0000000100240000042422C
:1035D0008004424200700040002014490866FFF752
:1035E000EBFA054606E0FFF7E7FA401B022801D98F
:1035F0000320F1E50E48006800F000700028F2D1C9
:1036000011E0E069012800D1E6E50948466806F4C2
:103610008031206A814204D106F47011606A8142CF
:1036200001D00120D8E50020D6E50000000042428C
:1036300000100240042808D14FF0E021096941F050
:1036400004014FF0E022116107E04FF0E021096929
:1036500021F004014FF0E0221161704770B504467B
:103660002546681EB0F1807F01D301200FE0681E5F
:103670004FF0E02148610F214FF0FF3001F010F8CA
:1036800000204FF0E021886107200861002070BD14
:10369000704700002DE9F04704462068056820685F
:1036A000C668206847694FF00008C14605F00F085A
:1036B000B8F1000F0AD105F0200038B106F0200063
:1036C00020B1204600F004FEBDE8F087B8F1000FFD
:1036D00071D007F0010018B906F4907000286AD084
:1036E00005F0010030B106F4807018B1E06B40F0D5
:1036F0000100E06305F0040030B107F0010018B1EB
:10370000E06B40F00200E06305F0020030B107F02A
:10371000010018B1E06B40F00400E06305F0080020
:1037200048B106F0200010B907F0010018B1E06BB5
:1037300040F00800E063E06B68B305F0200028B1BA
:1037400006F0200010B1204600F0C2FD206840695C
:10375000C0F38019E06B00F0080010B9B9F1000F58
:1037600022D0204600F094FD2068406900F040001F
:10377000B0B12068406920F0400021684861606B6A
:1037800050B11848616B4863606BFEF7A3FE10B13F
:10379000606B416B88470CE02046FFF779FF08E03B
:1037A0002046FFF775FF04E02046FFF771FF002079
:1037B000E06389E7FFE705F0800030B106F08000A4
:1037C00018B1204600F052FE7EE705F0400030B10F
:1037D00006F0400018B1204600F06AFD74E700BF13
:1037E00072E700007D42000810B504460CB90120C4
:1037F00010BDA06900B100E000BF94F8390028B9FD
:10380000002084F83800204600F028F8242084F8AE
:1038100039002068C06820F400502168C860204644
:1038200000F0A6FD2068006920F49040216808613E
:103830002068406920F02A00216848612068C0683B
:1038400040F400502168C8600020E063202084F824
:10385000390084F83A000020CAE7000010B58AB0A9
:1038600004467F49206888424BD100BF00BF7D4895
:10387000806940F004007B4988610846806900F057
:103880000400019000BF00BF00BF00BF00BF08469A
:10389000806940F0040088610846806900F00400F7
:1038A000019000BF00BF00BF00BF00BF0846806995
:1038B00040F4804088610846806900F480400190AF
:1038C00000BF00BF00BF48150690022007900120EE
:1038D00008900320099006A96348FEF7B5FF4FF44E
:1038E000806006900020079006A95F48FEF7ACFFB5
:1038F0002520FFF7A2F9032211462520FFF7ADF995
:10390000ACE05A49206888425AD100BF00BF5548F0
:10391000806940F00800534988610846806900F0DA
:103920000800019000BF00BF00BF00BF00BF0846F5
:10393000806940F0080088610846806900F008004E
:10394000019000BF00BF00BF00BF00BF0846C069B4
:1039500040F48020C8610846C06900F480200190CE
:1039600000BF00BF00BF081506900220079000208E
:1039700008900320099006A93D48FEF765FF4FF423
:10398000006006900020079008900320099006A987
:103990003748FEF759FF002211462720FFF75DF94F
:1039A0002720FFF74AF92068C06840F0200021680E
:1039B000C8602068C06840F010002168C8604DE011
:1039C0002C492068884249D100BF00BF2548806942
:1039D00040F00400234988610846806900F0040033
:1039E000019000BF00BF00BF00BF00BF0846806954
:1039F00040F0040088610846806900F004000190EE
:103A000000BF00BF00BF00BF00BF0846C06940F450
:103A10000030C8610846C06900F40030019000BF62
:103A200000BF00BF042002900220039001200490F8
:103A30000320059002A90C48FEF706FF082002901B
:103A40000020039002A90848FEF7FEFE2620FFF79B
:103A5000F4F8032202212620FFF7FFF80AB010BD78
:103A600000380140001002400008014000480040BA
:103A7000000C0140004400402DE9F84F04460E467A
:103A8000174699464FF0000A94F83A0020285DD175
:103A900006B117B90120BDE8F88F00BF94F83800CF
:103AA000012801D10220F6E7012084F8380000BF88
:103AB0000020E063222084F83A00FFF77DF8824678
:103AC000A785E785A068B0F5805F04D1206910B9AB
:103AD0000025B04602E035464FF0000800BF002048
:103AE00084F8380000BF29E05346002220212046F8
:103AF000CDF8009000F0EAFC08B10320CBE745B90F
:103B000020684068C0F30800A8F8000008F1020827
:103B100011E0A068B0F5805F03D0A06828B92069E3
:103B200018B920684068287004E02068406800F0F8
:103B30007F0028706D1CE08D401EE085E08D002820
:103B4000D2D1202084F83A000020A4E70220A2E786
:103B500010B5034693F83A0020282FD101B10AB9D5
:103B6000012010BD00BF93F83800012801D10220C8
:103B7000F7E7012083F8380000BF99629A85DA855B
:103B80000020D863222083F83A0000BF002083F889
:103B9000380000BF1868C06840F480701C68E0609E
:103BA0001868406940F001001C6860611868C068CE
:103BB00040F020001C68E0600020D2E70220D0E73F
:103BC0001D4A0168914236D11C49098801F400411F
:103BD00089BB1A49098801F4804171B118490978F3
:103BE0000A2903D00021154A118024E013490988CD
:103BF00041F40041114A11801DE0114909780D2955
:103C000006D10E49098841F480410C4A118012E026
:103C10000B490978094A1288C2F30D02094B9954DD
:103C200006490988491C054A118011460988C72997
:103C300001DD002111807047003801400C00002098
:103C40000E000020240000202DE9F84F04460E4607
:103C5000174699464FF0000A94F8390020285AD1A7
:103C600006B117B90120BDE8F88F00BF94F83800FD
:103C7000012801D10220F6E7012084F8380000BFB6
:103C80000020E063212084F83900FEF795FF82468A
:103C9000A784E784A068B0F5805F04D1206910B9DB
:103CA0000025B04602E035464FF0000800BF002076
:103CB00084F8380000BF1BE05346002280212046D4
:103CC000CDF8009000F002FC08B10320CBE745B925
:103CD000B8F80000C0F308002168486008F1020845
:103CE00003E02878216848606D1CE08C401EE08469
:103CF000E08C0028E0D15346002240212046CDF838
:103D0000009000F0E3FB08B10320ACE7202084F82A
:103D100039000020A7E70220A5E7704700B585B06D
:103D200000BF00BF1148806940F008000F4988615A
:103D30000846806900F00800009000BF00BF00BF87
:103D40000B48029048150190002003900320049036
:103D500001A90848FEF778FD002202211720FEF78E
:103D60007CFF1720FEF769FF05B000BD0010024080
:103D700000002110000C014010B51A4800780128FD
:103D800016D100BF002220211748FEF70FFF00BF09
:103D900000BF012211021548FEF708FF00BF0220F4
:103DA00002F08AFC642000F0A5FF00200D49087095
:103DB0000C480078A0B94FF400710C48FEF7E4FEFF
:103DC00070B100BF012220210748FEF7EFFE00BFBF
:103DD00000BF00224FF480710448FEF7E7FE00BFE9
:103DE00010BD00001A00002000180140000C014026
:103DF00000BFFEE730B589B004460D4602200390AF
:103E00008003059003A8FFF715F82E482E49086097
:103E1000002048604FF480712B48816001210173BC
:103E200002210161002101754FF46021C161002070
:103E3000254948600846FEF793F92348FEF75AF8EB
:103E40000020009001900290009401200190072032
:103E5000029069461C48FEF7CFF8009502200190B9
:103E60000720029069461848FEF7C6F800BF1748B9
:103E70001549086208461549486200BF14480860A1
:103E8000002048600021114881608021C160490004
:103E9000016189004161202181610902C161FEF750
:103EA000EDFB0948006800F14C010823094A074866
:103EB000FEF72AFC082207490348FEF74BFA09B02F
:103EC00030BD000000240140B0050020E0050020C6
:103ED000080002402406002000BFFEE7704770B5CE
:103EE00000240EE00021204600F00DF9002504E03A
:103EF000002000F09DF9681CC5B2802DF8DB601C25
:103F0000C4B2082CEEDB70BD00B585B000BF1A4806
:103F1000806940F00800184988610846806900F00F
:103F20000800009000BF00BF0020019002900390A5
:103F30000490112002908020019001200390032022
:103F4000049001A90D48FEF77FFC4020019001A9D3
:103F50000A48FEF779FC00BF012280210748FEF7DE
:103F600025FE00BF00BF012240210448FEF71EFECF
:103F700000BF05B000BD000000100240000C014071
:103F800070B50546002419E000BF8020204100EAFA
:103F9000050240211248FEF709FE00BF00BF0122C2
:103FA00080210F48FEF702FE00BF00BF00228021E3
:103FB0000B48FEF7FBFD00BF601CC4B2082CE3DB1E
:103FC00000BF012280210648FEF7F0FD00BF00BFC0
:103FD000002280210248FEF7E9FD00BF70BD00000D
:103FE000000C014010B500BF012240210C48FEF733
:103FF000DDFD00BF00BF012280210948FEF7D6FD8C
:1040000000BF00BF002240210548FEF7CFFD00BFE2
:1040100000BF002280210248FEF7C8FD00BF10BD8E
:10402000000C014010B500BF002240210948FEF7F6
:10403000BDFD00BF00BF012280210648FEF7B6FD8E
:1040400000BF00BF012240210248FEF7AFFD00BFC4
:1040500010BD0000000C014070B5002406E00025F2
:1040600000E06D1CB5F57A7FFBD3641CB4F57A7F54
:10407000F5D3FFF749FFAE2000F0CAF8D52000F0D5
:10408000C7F8802000F0C4F8A82000F0C1F83F2055
:1040900000F0BEF8D32000F0BBF8002000F0B8F824
:1040A000402000F0B5F8A12000F0B2F8C82000F0E0
:1040B000AFF8DA2000F0ACF8122000F0A9F8812067
:1040C00000F0A6F8CF2000F0A3F8D92000F0A0F867
:1040D000F12000F09DF8DB2000F09AF8302000F08D
:1040E00097F8A42000F094F8A62000F091F88D2015
:1040F00000F08EF8142000F08BF8AF2000F088F864
:10410000FFF7EDFE70BD70B505460C4645F0B000FA
:1041100000F07EF8102141EA141000F079F804F064
:104120000F0000F075F870BD2DE9F84380460F468A
:1041300015461E46089C3BE02878202821DB28787D
:104140007F281EDC00942A7833463946404601F029
:104150006FFB6D1C304606EBD07107EB6101CFB2EF
:1041600006EBD6714910C1F18001B94220DA204630
:10417000E11704EB517108EBE10101F0FF080227A0
:1041800016E033462A4639464046009401F098FB33
:10419000AD1C3819C7B2C6F18000B84208DA204613
:1041A000E11704EB517108EBE10101F0FF08022770
:1041B00028780028C0D1BDE8F8832DE9F84380466F
:1041C0000F4615461C46089E1DE000962A78234699
:1041D0003946404601F02CFB6D1C204604EBD071A3
:1041E00007EB6101CFB204EBD4714910C1F180013A
:1041F000B94208DA3046F11706EB517108EBE101DC
:1042000001F0FF08022728780028DED1BDE8F883F6
:1042100010B50446FFF7E6FE7820FFF7B1FE002058
:10422000FFF7AEFE2046FFF7ABFEFFF7FBFE10BD2B
:1042300010B50446FFF7D6FE7820FFF7A1FE402018
:10424000FFF79EFE2046FFF79BFEFFF7EBFE10BD3B
:1042500008B508490968C9084FF47A72B1FBF2F150
:104260004143009100BF00BF00994A1E00920029FF
:10427000F9D108BD000000207047704770B50546B1
:104280006C6A0020E085E0842046FFF701FA70BDEB
:104290000168C96821F490710268D16001684969B8
:1042A00021F0010102685161202180F83A10704725
:1042B00010B504462068C06820F040002168C8603E
:1042C000202084F839002046FFF727FD002010BD8C
:1042D00070B5044694F83A00222847D1A068B0F59A
:1042E000805F0CD1206950B90025A66A206840681B
:1042F000C0F308003080A06A801CA06215E0A56AA7
:104300000026A068B0F5805F03D0A06828B92069B6
:1043100018B920684068287004E02068406800F000
:104320007F002870A06A401CA062E08D401E80B211
:10433000E085C8B92068C06820F020002168C86006
:104340002068C06820F480702168C86020684069D7
:1043500020F0010021684861202084F83A002046BE
:10436000FFF72EFC002070BD0020FCE70220FAE7DA
:1043700070B504462168096921F44051E26811438F
:10438000226811612269A1681143626941EA02054C
:104390002168C96841F20C62914329432268D160C7
:1043A0002168496921F44071A26911432268516171
:1043B0002D4A2168914202D1FEF7B0FE01E0FEF7DE
:1043C0009DFE00EBC00101EB001162689200B1FBA1
:1043D000F2F100EBC00202EB001263689B00B2FB3B
:1043E000F3F26423B2FBF3F202EBC20303EB02121B
:1043F000A1EB8201322202EB01116422B1FBF2F146
:1044000001F0F00100EBC00202EB001263689B00B8
:10441000B2FBF3F26423B2FBF3F201EB021200EB06
:10442000C00101EB001163689B00B1FBF3F100EBED
:10443000C00303EB00136668B600B3FBF6F3642613
:10444000B3FBF6F303EBC30606EB0313A1EB830107
:10445000322303EB01116423B1FBF3F101F00F01EF
:1044600011442268916070BD00380140014691F806
:104470003900212828D18868B0F5805F0BD1086900
:1044800048B90A6A1088C0F308000B685860086AC7
:10449000801C086205E00B6A581C086218780B68DB
:1044A0005860C88C401E80B2C88458B90868C0687B
:1044B00020F080000B68D8600868C06840F04000B9
:1044C0000B68D860002070470220FCE72DE9F0411E
:1044D00004460D4617469846069E21E0701CF8B12A
:1044E0002EB1FEF769FBA0EB0800B04218D9206896
:1044F000C06820F4D0702168C8602068406920F04E
:10450000010021684861202084F8390084F83A00CD
:1045100000BF002084F8380000BF0320BDE8F08110
:10452000206800682840A84201D1012000E0002056
:10453000B842D3D00020F1E710B50648FFF7AAF83B
:1045400000BF012204490348FFF702FB0028F8D10D
:1045500010BD0000EC0000200E0000201CB53F48FC
:1045600000680068C0F3C00090B100BF0020009058
:104570003A48006800680090384800684068009039
:1045800000BF00BF354800680068344800684068D4
:10459000324800680068C0F3401020B34FF0FF338A
:1045A000012201A92D48FFF767FA2D48B0F8000451
:1045B000C0F30E0040F2FF31884215DA9DF8040086
:1045C0002749B1F80014C1F30E01254A5054104692
:1045D000B0F80004401C1146B1F8001460F30E015D
:1045E0001046A0F800141BE01D48B0F800046FF35B
:1045F0000E001B49A1F800049DF80400B1F8001456
:10460000C1F30E01164A50541046B0F80004401C85
:104610001146B1F8001460F30E011046A0F8001422
:104620000E4800680068C0F30010B0B10C48B0F844
:10463000000420F4004000F500400949A1F80004FE
:1046400000BF002000900548006800680090034803
:1046500000684068009000BF00BF1CBD2C01002016
:104660006C01002000BFFEE7490050EAC12018BFDE
:1046700004204A0D18BF40F0010040F2FF72B2EB77
:10468000515F08BF40F00200012808BF05207047B5
:1046900002480068C0F30220704700000CED00E003
:1046A00010B5002804DB0A07130E054A135406E070
:1046B0000A07140E034A00F00F031B1FD45410BD49
:1046C00000E400E018ED00E02DE9F0414F1E00EBA2
:1046D000C7010446D1E9000115461E4637F006021F
:1046E0000DD02A46334602F0EFFA7F1E04EBC703D3
:1046F000D3E9002302F080F837F00602F1D1022F4F
:1047000025D0042F13D0062F18BFBDE8F0812A460C
:10471000334602F0D9FAD4E90A2302F06DF82A46AA
:10472000334602F0D1FAD4E9082302F065F82A46AC
:10473000334602F0C9FAD4E9062302F05DF82A46AE
:10474000334602F0C1FAD4E9042302F055F82A46B0
:10475000334602F0B9FAD4E9022302F04DF82A46B2
:10476000334602F0B1FAD4E90023BDE8F04102F08B
:1047700043B80000002213461046014902F0F8B881
:104780000000F03F02F038B80022134610461146F0
:1047900002F0EEB840F2013200204FF0E04102F0AA
:1047A000ABBF0000024A0020110702F0A5BF0000C5
:1047B00001FDFFFF30380A2801D201207047002098
:1047C000704700BF7047000000B585B000BF00BF54
:1047D0001148806940F008000F49886108468069E7
:1047E00000F00800009000BF00BF00BF0120029051
:1047F00004200190012003900320049001A90748A0
:10480000FEF722F800BF002204210448FEF7CEF98B
:1048100000BF05B000BD000000100240000C0140C8
:1048200070B500250BE04FF4FA7207A107A000F065
:1048300045F904460CB9002070BD681CC5B20A2DAC
:10484000F1DB0120F8E700004F4B0000415400006D
:1048500070B505464FF4167000F04CFA15B1012DF5
:1048600010D107E04FF496620AA10BA000F026F9E0
:10487000044609E04FF4966206A109A000F01EF973
:10488000044601E0032070BD00BF0CB90020FAE728
:104890000120F8E74F4B0000415445300000000074
:1048A000415445310000000070B590B004460D46FB
:1048B0002B4622460AA16846FBF71EFD69460EA05C
:1048C000FBF70EFD40F6B83211A1684600F0F6F88D
:1048D000064616B9002010B070BD0120FBE70000AD
:1048E00041542B4D515454434F4E4E3D302C2225B4
:1048F00073222C25642C31006D71747420636F6EEB
:104900006E6563742D3E636D643A25730D0A000075
:104910004F4B000010B54FF47A7205A105A000F0CE
:10492000CDF804460CB9002010BD0120FCE70000C2
:104930004F4B000041542B4D515454434C45414E74
:104940003D3000002DE9F04106464FF4FA720FA108
:104950000FA000F0B3F8074617B10120BDE8F081C1
:1049600000F060F980460DA1FBF776FE04460BA12E
:10497000601CFBF771FE054600202870621C08A130
:104980003046FBF7B9FC0020E8E700004F4B000081
:1049900041542B43494653520000000022000000BE
:1049A0002573000000B585B000BF00BF0D488069C9
:1049B00040F004000B4988610846806900F004005B
:1049C000009000BF00BF00BF1020019001200290A6
:1049D000002003900320049001A90348FDF734FF51
:1049E00005B000BD001002400008014010B500BF36
:1049F000002210210948FEF7D9F800BF642000F01A
:104A000079F900BF012210210448FEF7CFF800BF5A
:104A10004FF4FA7000F06EF910BD0000000801407C
:104A200010B50446FFF7BEFFFFF7E0FF204600F099
:104A3000C3F8FFF7F5FE08B1012010BD0020FCE728
:104A400070B590B004460D462B46224608A1684634
:104A5000FBF752FC42F210720AA1684600F02EF8F1
:104A6000064616B9002010B070BD0120FBE700001B
:104A700041542B43574A41503D222573222C222575
:104A8000732200005749464920474F54204950009F
:104A900010B540F2DC5205A105A000F00FF8044665
:104AA0000CB9002010BD0120FCE700004F4B0000B6
:104AB00041542B524553544F524500002DE9F041CB
:104AC00005460E461446002700F0C2F829460FA0FE
:104AD00000F08AF806B114B90020BDE8F08110E0BA
:104AE00000F0A0F8074647B131463846FBF7B4FD61
:104AF00008B10020F1E700F0ABF8641E012000F0DF
:104B0000F9F8002CECD10220E7E7000025730D0A2C
:104B10000000000070B50546012D04D0022D0AD01A
:104B2000032D18D10FE04FF4FA720FA10FA0FFF779
:104B3000C5FF044611E04FF4FA720BA10EA0FFF777
:104B4000BDFF044609E04FF4FA7207A10DA0FFF77C
:104B5000B5FF044601E0032070BD00BF0CB9002082
:104B6000FAE70120F8E700004F4B000041542B43C7
:104B7000574D4F44453D310041542B43574D4F4411
:104B8000453D320041542B43574D4F44453D330082
:104B900010B540F2DC5205A105A0FFF78FFF0446D7
:104BA0000CB9002010BD0120FCE700004F4B0000B5
:104BB00041542B525354000010B50446084809498B
:104BC00008600846446000218160C16001610C21D9
:104BD000416100218161C161FEF706FE10BD000048
:104BE000004800402C0100200FB438B505A8009003
:104BF0000A48009A0499FBF761FB002000900748DF
:104C0000FBF73CFD84B24FF0FF33224603490448D2
:104C1000FFF71AF838BC5DF814FB00006E050020A1
:104C20002C0100200948B0F800040121B1EBD03F6D
:104C300009D100200549B1F80014C1F30E01034A5F
:104C40005054104670470020FCE700006C01002023
:104C50000748B0F800046FF30E000549A1F80004FE
:104C60000846B0F8000420F40040A1F800047047A2
:104C70006C01002000B585B000BF00BF11488069FD
:104C800040F008000F4988610846806900F008007C
:104C9000009000BF00BF00BF881501900120029066
:104CA00003900320049001A90748FDF7CDFD00BF44
:104CB00000224FF480710448FDF778FF00BF05B073
:104CC00000BD000000100240000C014010B5044679
:104CD00000204FF0E0210861FEF7ACFC2046E11710
:104CE00004EB5171C1F3CF01014A118010BD0000E6
:104CF0000400002070B504464FF47A7094FBF0F580
:104D000094FBF0F100FB114603E0074800F00EF8B9
:104D10006D1E002DF9D12EB14FF47A7106FB01F012
:104D200000F004F870BD000040420F000146114A37
:104D300012884A434FF0E0235A6100229A611A46D2
:104D4000126942F001021A6100BF4FF0E0221069BF
:104D500000F001021AB100F48032002AF5D04FF0C1
:104D6000E022126922F001024FF0E0231A610022D2
:104D70009A6170470400002070B50546287880B914
:104D800040F25B710EA0FFF78FFD04462CB90120A5
:104D9000287010A0FBF7A4FA10E015A0FBF7A0FA0A
:104DA0000CE0FFF7B7FD04462CB90020287019A0CD
:104DB000FBF796FA02E021A0FBF792FA70BD000023
:104DC0006D717474732E6865636C6F7564732E6394
:104DD0006F6D0000436F6E6E65637420746F204FBB
:104DE0006E654E657420636C6F7564210D0A00005A
:104DF0004572726F7220746F20636F6E6E6563749C
:104E0000204F6E654E657420636C6F7564210D0ACA
:104E100000000000446973636F6E6E6563742074F4
:104E20006F204F6E654E657420636C6F75642073E0
:104E3000756363657373210D0A0000004469736331
:104E40006F6E6E65637420746F204F6E654E65746F
:104E500020636C6F7564206661696C210D0A000027
:104E600010B5C2B0002000903C23024608A101907A
:104E700002A8FBF741FA40F2DC520EA102A8FFF7AC
:104E80001DFE044614B9002042B010BD0120FBE70E
:104E900041542B4D515454434F4E4E4346473D25AC
:104EA000642C25642C25642C22222C22222C25649F
:104EB0002C3000004F4B000010B5C6B000200D4A4A
:104EC0000DA3CDE90220019304900EA0012300223E
:104ED0000EA1009006A8FBF70FFA40F2DC5217A1D2
:104EE00006A8FFF7EBFD044614B9002046B010BD3C
:104EF0000120FBE740A90008343541394750694F8C
:104F0000696E0000777364736300000041542B4D99
:104F1000515454555345524346473D25642C25640E
:104F20002C222573222C222573222C222573222C3D
:104F300025642C25642C2222000000004F4B000029
:104F4000F0B5C3B004460D4616460020234602467F
:104F50000AA1CDE90056029003A8FBF7CDF903A9F9
:104F60000EA0FBF7BDF940F2DC5210A103A8FFF739
:104F7000A5FD0746384643B0F0BD000041542B4D17
:104F80005154545055423D25642C222573222C2225
:104F90002573222C25642C25640000007075622086
:104FA0006D73673A25730D0A000000004F4B000037
:104FB00070B505460E46012D09D146B9FFF732FE00
:104FC000044624B1204601F0CFF9FFF741FE70BD41
:104FD000C6B0002041904FF001084FF4E130FFF7D8
:104FE0001FFD04466CB16FA0FBF77AF908E000BF23
:104FF00020217348FDF7D0FD00BFC820FFF77AFEDF
:10500000F5E770A0FBF76CF9FFF742FD0446214677
:1050100071A0FBF765F9FFF703FC2044C4B22146F9
:1050200073A0FBF75DF90120FFF774FD2044C4B2C3
:10503000214674A0FBF754F9FFF7AAFD2044C4B23F
:10504000214677A0FBF74CF96420FFF753FE0020C0
:10505000FFF7FEFB2044C4B2214676A0FBF740F9DF
:1050600079A17CA0FFF7ECFC2044C4B221467AA0D1
:10507000FBF736F942A8FFF765FC2044C4B221468D
:105080007BA0FBF72DF96CB17FA0FBF729F908E0B5
:1050900000BF20214A48FDF77FFD00BFC820FFF771
:1050A00029FEF5E742A800F05FF9FFF705FF044687
:1050B00021467AA0FBF714F9FFF7D2FE2044C4B2D0
:1050C00021467EA0FBF70CF96CB185A0FBF708F92F
:1050D00008E000BF20213A48FDF75EFD00BFC82070
:1050E000FFF708FEF5E7FFF7B3FD0025002657E0C0
:1050F000002000F0C9FA0746012F17D0022F02D076
:10510000032F3CD103E0042001F0D6FA38E041A897
:10511000FFF732FE9DF8040120B176A000F032F9CD
:10512000804601E04FF00108761C29E07DB9294650
:1051300079A0FBF7D5F82A467BA101A8FBF7DCF89C
:10514000002201A96BA0FFF7FBFE6D1C10E0012DF2
:105150000ED1294680A0FBF7C3F82A4672A101A808
:10516000FBF7CAF8002201A962A0FFF7E9FE0025BB
:1051700000264FF47A70FFF7BDFD761C00E000BFFB
:1051800000BF012E07D1FEF7F7FD01F0F9F84FF44B
:105190007A70FFF7AFFD41469DF80401FFF708FF65
:1051A000A6E7000041544B2D4D5738323636442087
:1051B000696E6974206661696C6564210D0A00007E
:1051C000000C01404A6F696E696E6720746F204160
:1051D000502E2E2E0D0A00007769666920726573C5
:1051E000746F7265207265743A25640D0A000000C0
:1051F000776966692074657374207265743A2564F2
:105200000D0A000077696669207365742073746104
:1052100074696F6E207265743A25640D0A0000008F
:105220007769666920727374207265743A25640D1B
:105230000A000000636C6F73652073686F772072DB
:1052400065743A25640D0A003838383838383838EB
:1052500000000000706900007769666920636F6E66
:105260006E656374207265743A25640D0A0000004F
:105270007769666920676574206970207265743A81
:1052800025640D0A000000004572726F7220746F71
:10529000206A6F696E206170210D0A006D7174744F
:1052A0002075736572206D736720636F6E66696722
:1052B000207265743A25640D0A0000006D717474E3
:1052C00020636F6E6E656374206D736720636F6E0D
:1052D000666967207265743A25640D0A0000000053
:1052E0004D71747420696E6974206661696C210D5A
:1052F0000A000000247379732F343541394750690F
:105300004F696E2F77736473632F64702F706F73A0
:10531000742F6A736F6E0000D0A3B3B5D2D1B3F609
:10532000B7A22025640D0A007B5C2269645C223AE6
:105330003132335C2C5C2264705C223A7B5C2262EA
:1053400075735C223A5B7B5C22765C223A20256492
:105350007D5D7D7D00000000D0A3B3B5D2D1B5BD89
:10536000B4EF2025640D0A0010B50446214602A0C2
:10537000FAF7B6FF10BD000049503A2025730D0A18
:105380000000000030B5A1B004462346002208A169
:1053900001A8FAF7B1FF40F2DC520BA101A8FFF718
:1053A0008DFB054615B9002021B030BD0120FBE77B
:1053B00041542B4D5154545355423D25642C2225C4
:1053C00073222C30000000004F4B000070B5002409
:1053D000002504E0601CC4B20120FFF7A7FC4FF4D5
:1053E00000610F48FDF7D0FB08B1642CF2DB642CA0
:1053F00001DB012511E0002404E0601CC4B201209F
:10540000FFF794FC4FF400610548FDF7BDFB08B9B8
:10541000642CF2DB642C00DB0125284670BD000003
:105420000020014000B585B000BF00BF0F48806973
:1054300040F480700D4988610846806900F48070EE
:10544000009000BF00BF00BFC8140190112002905F
:10545000012003900320049001A90548FDF7F4F909
:1054600000F072F8FFF7B2FF05B000BD0010024077
:105470000020014010B5002404E0601CC4B20120EB
:10548000FFF754FC4FF400611048FDF77DFB08B1B5
:10549000642CF2DB002404E0601CC4B20120FFF79E
:1054A00045FC4FF400610948FDF76EFB08B9642C18
:1054B000F2DB2820FFF73AFC4FF400610348FDF7C8
:1054C00063FB08B1012010BD0020FCE70020014073
:1054D00070B50024002506E06006040EFFF7CAFF41
:1054E0000443681CC5B2082DF6DB204670BD7CB5B0
:1054F00005460E4600F028F8FFF768FFF8B90024CB
:1055000005E0FFF7E5FF0DF80400601CC4B2052CB0
:10551000F7DB9DF800009DF8011008449DF802108B
:1055200008449DF8031008449DF80410884208D1EF
:105530009DF8000030709DF80200287001E0012005
:105540007CBD0020FCE7000010B500BF00224FF436
:1055500000610948FDF72AFB00BF1420FFF7CAFBD2
:1055600000BF0122D1020448FDF720FB00BF1E202E
:10557000FFF7DCFB10BD00000020014000BF054A22
:10558000126802F04002002AF9D0C2B2014B1B1D82
:105590001A6070470038014000B585B000BF00BFF9
:1055A0003648806940F04000344988610846806987
:1055B00000F04000009000BF00BF00BF00BF00BF70
:1055C0000846806940F0400088610846806900F024
:1055D0004000009000BF00BF00BF00BF00BF0846F2
:1055E000806940F0400088610846806900F0400012
:1055F000009000BF00BF00BF00BF00BF0846806929
:1056000040F0040088610846806900F004000090C2
:1056100000BF00BF00BF10200190002002900120B9
:1056200003900320049001A91548FDF70DF9082007
:10563000019000200290012003900320049001A912
:105640000F48FDF701F9042001900020029001208D
:1056500003900320049001A90948FDF7F5F8012003
:10566000019000200290022003900320049001A9E1
:105670000448FDF7E9F805B000BD00000010024045
:10568000001801400008014070B50446002514B11F
:1056900001202B4908702A480078002834D01021B6
:1056A0002848FDF771FA78B108212648FDF76CFA11
:1056B00050B104212348FDF767FA28B1012122489F
:1056C000FDF762FA01281FD10A20FFF713FB002023
:1056D0001B49087010211B48FDF756FA00B9012537
:1056E00008211848FDF750FA00B902250421154891
:1056F000FDF74AFA00B9032501211348FDF744FAE2
:1057000001281BD1042519E010210E48FDF73CFAB1
:10571000012813D108210B48FDF736FA01280DD1D5
:1057200004210848FDF730FA012807D10121064875
:10573000FDF72AFA10B9012001490870284670BD0A
:1057400019000020001801400008014000B585B094
:1057500000BF00BF1E48806940F008001C498861F6
:105760000846806900F00800009000BF00BF00BF3D
:1057700000BF00BF0846806940F0400088610846CD
:10578000806900F04000009000BF00BF00BF2020F3
:1057900001900120029003900320049001A90D487C
:1057A000FDF752F82020019001A90B48FDF74CF8B5
:1057B00000BF012220210748FDF7F8F900BF00BF14
:1057C000012220210448FDF7F1F900BF05B000BD1A
:1057D00000100240000C01400018014010B5FDF718
:1057E000F1F94FF4E01000F0A1FE4820FFF76EFA47
:1057F0004FF4E13000F044FF4FF4165000F028FF62
:10580000FFF7A4FFFFF7C8FEFEF7DEFFFFF732FA4F
:1058100000F008FEFEF782FA02210120FEF7EAFA04
:10582000FEF71AFCFFF7FEFDFFF7D2FB002010BDCC
:105830002DE9F05F81468B4692461C460A9DAAF1EF
:10584000200000F0FF0800262DE009EB0601C8B299
:105850005946FEF758FC00271EE0102C0BD1102DE6
:1058600009D107EB0811082202FB0611124A505C0D
:10587000FEF7DEFC0EE0202C0CD1182D0AD108EB2F
:10588000480107EB0111102202FB06110B4A505C84
:10589000FEF7CEFC781CC7B204EBD471B7EB610FF6
:1058A000DBDB701CC6B2E91705EB5171B6EBE10FFB
:1058B000CBDBBDE8F09F00009C7700084B8B000815
:1058C0002DE9F05F82468B4691461F460A9D0024D3
:1058D00010E099F800002B4A12F81410884207D102
:1058E00099F801106000401C105C814200D106E074
:1058F000601CC4B2234911F814000028E9D100BF8C
:105900002048FAF7BBFEB4EB500F01D1BDE8F09F81
:105910002F4600262DE00AEB0601C8B25946FEF7D5
:10592000F2FB4FF0000820E0102D0BD1102F09D111
:1059300008EB4411102202FB0611134A505CFEF7DB
:1059400077FC0EE0182D0CD1182F0AD104EBC401FE
:1059500008EBC101182202FB06110C4A505CFEF74D
:1059600067FC08F1010000F0FF08B845DCDB701CA3
:10597000C6B2E91705EB5171B6EBE10FCBDB00BF07
:10598000C4E700008C7D0008D37D00083382000846
:105990002DE9F04D1D460C4698B0174621F0004108
:1059A00023F00043002814BF4FF0010C4FF0000C0F
:1059B0000CEB440CFE4A0CEB02064FEA620C664507
:1059C0002BD33E0018BF012606EB45061644F94AC4
:1059D000964222D3F84A53EA070C02D0944205D1EA
:1059E00048B918B000201146BDE8F08D002808BF66
:1059F0004FF0000C01D04FF0010C0CEB440212F5FB
:105A0000001F0AD8002F14BF4FF0010C4FF0000CFC
:105A10000CEB450212F5001F07D918B03A462B4689
:105A20002146BDE8F04DFEF7ADBE0022DFF88CA3A5
:105A3000002CB8BF534526DADFF884C36345A8BFFE
:105A4000022220DADFF870C39C451CDCDFF874C347
:105A50000CEB235CBCF1140F08DDCCF1340627FA03
:105A600006FC0CFA06F6BE420DD108E05FB9CCF197
:105A7000140623FA06FC0CFA06F69E4203D10CF03B
:105A80000102C2F1020251EA000C19D1002D17DA0D
:105A9000002C18BF022A01D0012A07D00220FAF7F1
:105AA00015FE18B0BDE8F04DFEF764BE0220FAF70F
:105AB0000DFEFEF75FFE18B081F00041BDE8F08DED
:105AC000B7F1000C6CD1534525D104F1804212F599
:105AD000801201BF00280020B74918B008BFBDE8F8
